:020000040800F2
:1000000000400220E1080008390400083D0400080F
:1000100000000000000000000000000000000000E0
:100020000000000000000000000000004104000883
:10003000000000000000000045040008490400081A
:100040003109000831090008750400083109000869
:10005000310900083109000831090008530400087B
:100060003109000831090008310900083109000888
:100070003109000831090008310900083109000878
:100080003109000831090008310900083109000868
:10009000310900086104000831090008310900082D
:1000A0003109000831090008310900083109000848
:0C00B0003109000831090008310900087E
:1000BC00002934D00123002210B488422CD301240F
:1000CC002407A14204D2814202D209011B01F8E7A4
:1000DC00E400A14204D2814202D249005B00F8E75D
:1000EC00884201D3401A1A434C08A04202D3001B89
:1000FC005C0822438C08A04202D3001B9C082243BC
:10010C00CC08A04202D3001BDC082243002803D0F9
:10011C001B0901D00909E3E7100010BC704701B5B9
:10012C00002000F05FF802BD0029F8D003B5FFF7FE
:10013C00C1FF0EBC4243891A1847C046002941D062
:10014C0010B404004C40A44601230022002900D521
:10015C004942002800D5404288422CD30124240770
:10016C00A14204D2814202D209011B01F8E7E4004A
:10017C00A14204D2814202D249005B00F8E78842D6
:10018C0001D3401A1A434C08A04202D3001B5C084E
:10019C0022438C08A04202D3001B9C082243CC08AB
:1001AC00A04202D3001BDC082243002803D01B0909
:1001BC0001D00909E3E710006446002C00D5404249
:1001CC0010BC704701B5002000F00CF802BDC04611
:1001DC000029F7D003B5FFF7B3FF0EBC4243891AD1
:1001EC001847C0467047C0460023C25C0133002A42
:1001FC00FBD1581E7047000010B5064C2378002B1D
:10020C0007D1054B002B02D0044800E000BF0123AE
:10021C00237010BD0C0000200000000008630008D3
:10022C00044B10B5002B03D00349044800E000BF79
:10023C0010BDC0460000000010000020086300083C
:10024C0000B583B000F072FB284B5A6B274B04218E
:10025C000A435A63254B5B6B042213400193019BA9
:10026C00234B01225A60224B05221A60204B214A53
:10027C00DA601F4B01225A611D4B1F4A9A611C4BBD
:10028C00180005F0CFFD96235B001C4A1C4918484A
:10029C0005F038FE1B4A1C4915480A2305F032FEAE
:1002AC001A4A1B491248322305F02CFE194A1A49E6
:1002BC000F48642305F026FE184A19490C480823F8
:1002CC0005F020FE174AFA239900094B180005F097
:1002DC003BFD03001A00144B1A60054B180005F087
:1002EC0099FE0023180003B000BDC0460010024068
:1002FC002800002060000020C4000020AD0300088E
:10030C0039030008C52F0008712900087D37000843
:10031C0011370008895A00082157000819040008F1
:10032C00D1030008113200084400002000B587B04A
:10033C00184B5A6B174B04210A435A63154B5B6BD2
:10034C00042213400093009B01AB7F221A6001AB87
:10035C0001225A6001AB00229A6001AB0022DA60E4
:10036C0001AB0D4A1900100001F078F90A4B00227C
:10037C000121180001F0DCFA074B002220211800A3
:10038C0001F0D6FA00F04AFB0200044B1A60C0469A
:10039C0007B000BD001002400008005048000020CB
:1003AC0010B500F03BFB0200044B1A60044B01211A
:1003BC00180001F0DCFAC04610BDC0464800002011
:1003CC000008005010B50E4B0E4A1A600C4BA022C0
:1003DC0092015A600A4B7E229A60094B7F22DA60A6
:1003EC00074B00221A61064B180005F07DFB064BEB
:1003FC0001220821180001F09BFAC04610BDC0462E
:10040C004C000020002C00400008005010B5054B9B
:10041C000221180001F0ABFA034B180005F087FB22
:10042C00C04610BD000800504C000020C04670476C
:10043C00C0467047C0467047C046704710B500F0C4
:10044C00DFFAC04610BD10B5802001F0ABFAC046F3
:10045C0010BD000010B5034B180001F0D9FEC046CA
:10046C0010BDC046F400002010B5034B180003F07B
:10047C00D5FEC04610BDC0463C02002000B59DB064
:10048C000DAB18003C231A00002105F0EBFE09AB64
:10049C00180010231A00002105F0E4FE4B4B1A6CD7
:1004AC004A4B01210A431A64484B1B6C012213402E
:1004BC000393039B454BDA6B444B802149050A435C
:1004CC00DA63424BDA6B80235B0513400293029B89
:1004DC0080239B00180003F0DBFF0DAB02221A6097
:1004EC000DAB80225200DA600DAB00221A610DAB0D
:1004FC0040225A610DAB02221A620DAB02225A62E3
:10050C000DAB00229A620DAB0822DA620DAB802291
:10051C0092021A630DAB802292045A630DAB8022B7
:10052C0092059A630DAB180000F0B4FB09AB0722DF
:10053C001A6009AB02225A6009AB00229A6009AB1F
:10054C008022D201DA6009AB0221180000F000FF12
:10055C001E4B5A6B1D4B02210A435A631B4B5B6BA0
:10056C00022213400193019B04AB8022D2011A603A
:10057C0004AB01225A6004AB00229A6004AB022245
:10058C00DA6004AB124A1900100001F067F804ABF2
:10059C0080221A6004ABC42292035A6004AB00227E
:1005AC009A6004AB0022DA6004AB094A190010000F
:1005BC0001F054F800220221072000F02BFB072049
:1005CC0000F03CFBC0461DB000BDC0460010024010
:1005DC000004005000B58BB001901D4BDA6B1C4B26
:1005EC00802149010A43DA63194BDA6B80235B01E2
:1005FC0013400493049B164B5A6B154B08210A436A
:10060C005A63134B5B6B082213400393039B05AB9C
:10061C0002225A6005AB03221A6105AB03221A6051
:10062C0005AB00229A6005AB0222DA6005AB094AE1
:10063C001900100001F012F801220221152000F01F
:10064C00E9FA152000F0FAFAC0460BB000BDC0461E
:10065C0000100240000C005000B5A9B0019019AB7D
:10066C0018003C231A00002105F0FCFD06AB180015
:10067C004C231A00002105F0F5FD374B1A6C364B54
:10068C0001210A431A64344B1B6C0122134005935D
:10069C00059B314BDA6B304B802149050A43DA63F9
:1006AC002D4BDA6B80235B0513400493049B802352
:1006BC009B00180003F0ECFE03F0DEFE264BDA6D17
:1006CC00254B18218A43DA6506AB802292021A6008
:1006DC0006AB00221A6406AB180003F017FF19AB27
:1006EC0004221A6019AB00221A6219AB01229A601B
:1006FC0019AB00229A6119AB180000F0CBFA06ABCB
:10070C00802292021A6006AB802252001A6406AB59
:10071C00180003F0FBFE104BDA6D0F4B8021090221
:10072C000A43DA650C4BDA6B0B4B8021C9000A4388
:10073C00DA63094BDA6B8023DB0013400393039BD2
:10074C0000220021022000F065FA022000F076FA67
:10075C00C04629B000BDC0460010024000B58BB0A9
:10076C000190194B5A6B184B02210A435A63164BD2
:10077C005B6B022213400493049B134BDA6B124BFA
:10078C008021C9010A43DA630F4BDA6B8023DB014A
:10079C0013400393039B05ABA02292011A6005AB97
:1007AC0002225A6005AB01229A6005AB0222DA6084
:1007BC0005AB00221A6105AB044A1900100000F0C9
:1007CC004DFFC0460BB000BD0010024000040050AD
:1007DC0000B58BB001902E4B5A6B2D4B04210A4364
:1007EC005A632B4B5B6B042213400493049B284BE2
:1007FC005A6B274B02210A435A63254B5B6B02222F
:10080C0013400393039B05AB982252011A6005AB6E
:10081C0001225A6005AB00229A6005AB0222DA6015
:10082C0005AB1C4A1900100000F018FF05AB802224
:10083C0012021A6005AB01225A6005AB00229A60C5
:10084C0005AB0222DA6005AB134A1900100000F068
:10085C0005FF80231B0210480122190001F068F8E3
:10086C0080235B010B480022190001F061F8802302
:10087C009B0008480122190001F05AF880235B0004
:10088C0004480122190001F053F8C0460BB000BD1A
:10089C0000100240000800500004005084B0019089
:1008AC00019B1B68094A93420DD1094BDA6B084B2B
:1008BC00802109010A43DA63054BDA6B80231B01A3
:1008CC0013400393039BC04604B07047002C0040B8
:1008DC00001002400D48854600F025F80C480D49E3
:1008EC000D4A002302E0D458C4500433C4188C427F
:1008FC00F9D30A4A0A4C002301E013600432A242E5
:10090C00FBD305F0C5FCFFF79BFCFEE70040022083
:10091C00000000200C000020546500080C00002092
:10092C000C610020FEE7C0467047000000B583B0A4
:10093C006B46073300221A700C4B1A680B4B802144
:10094C0049000A431A60002000F012F8031E04D07C
:10095C006B46073301221A7001E0FFF78FFD6B46DF
:10096C0007331B78180003B000BDC04600200240BE
:10097C0010B584B001900F236B4400221A701D4BEC
:10098C001B78002B2BD01C4B1C681A4B1B781900A6
:10099C00FA239800FFF78CFB030019002000FFF7E7
:1009AC0087FB0300180000F069F9031E12D1019BAC
:1009BC00032B0AD8019901235B420022180000F096
:1009CC0029F90E4B019A1A600DE00F236B4401229A
:1009DC001A7008E00F236B4401221A7003E00F23F6
:1009EC006B4401221A700F236B441B78180004B05F
:1009FC0010BDC046080000200000002004000020AC
:100A0C00044B1B781A00044B1B68D218024B1A605B
:100A1C00C046704708000020D4000020014B1B6822
:100A2C0018007047D400002000B585B00190FFF786
:100A3C00F5FF03000293019B0393039B013305D045
:100A4C00094B1B781A00039B9B180393C046FFF7B6
:100A5C00E5FF0200029BD31A039A9A42F7D8C046CC
:100A6C00C04605B000BDC0460800002082B00200A0
:100A7C006B4607331A706B4607331B787F2B0AD8EB
:100A8C006B4607331B781A001F231A40034B0121B6
:100A9C0091400A001A60C04602B0704700E100E0C5
:100AAC0082B002006B4607331A706B4607331B7813
:100ABC007F2B11D86B4607331B781A001F2313406A
:100ACC00074901229A40130080228B50BFF34F8FAD
:100ADC00C046BFF36F8FC046C04602B07047C046D9
:100AEC0000E100E010B582B0020000916B460733C4
:100AFC001A706B4607331B787F2B2CD8324A6B4607
:100B0C0007331B785BB29B08C0339B009B586A462B
:100B1C0007321278110003220A40D200FF219140C3
:100B2C000A00D2431A401100009B9B01FF221A407D
:100B3C006B4607331B78180003230340DB009A40F5
:100B4C0021486B4607331B785BB29B080A43C033C2
:100B5C009B001A5035E01D4A6B4607331B78190071
:100B6C000F230B40083B9B0806339B00D318043320
:100B7C001B686A4607321278110003220A40D20021
:100B8C00FF2191400A00D2431A401100009B9B01A7
:100B9C00FF221A406B4607331B78180003230340CF
:100BAC00DB009A4009486B4607331B781C000F2367
:100BBC002340083B9B080A4306339B00C3180433AD
:100BCC001A60C04602B010BD00E100E000ED00E08C
:100BDC0000B583B00190019B5A1E80235B049A429E
:100BEC0001D3012310E00A4B019A013A5A60012308
:100BFC005B4203211800FFF775FF054B00229A603A
:100C0C00034B07221A600023180003B000BDC04636
:100C1C0010E000E000B585B0029101920F236B4407
:100C2C00021C1A70029A0F236B441B785BB21100E2
:100C3C001800FFF757FFC04605B000BD00B583B0E4
:100C4C0002006B4607331A706B4607331B785BB296
:100C5C001800FFF70BFFC04603B000BD00B583B012
:100C6C0002006B4607331A706B4607331B785BB276
:100C7C001800FFF715FFC04603B000BD00B583B0E8
:100C8C000190019B1800FFF7A3FF0300180003B0AD
:100C9C0000BD000000B589B00190019B002B02D172
:100CAC00012300F04FFB019B1B680122134000D174
:100CBC007CE0C34B9B68382213400693C04BDB6827
:100CCC00032213400593069B102B02D1059B032B8B
:100CDC0002D0069B082B0BD1B94B1A6880239B02C0
:100CEC00134062D0019B5B68002B5ED1012329E38A
:100CFC00019B5A6880235B029A4207D1B04B1A6859
:100D0C00AF4B802149020A431A6020E0019B5A68CC
:100D1C00A023DB029A420ED1A94B1A68A84B802162
:100D2C00C9020A431A60A64B1A68A54B80214902D6
:100D3C000A431A600BE0A24B1A68A14BA1490A4066
:100D4C001A609F4B1A689E4B9F490A401A60019B80
:100D5C005B68002B14D0FFF761FE0300049308E0DE
:100D6C00FFF75CFE0200049BD31A642B01D903230A
:100D7C00E8E2934B1A6880239B021340F0D015E0F5
:100D8C00FFF74CFE0300049308E0FFF747FE020058
:100D9C00049BD31A642B01D90323D3E2884B1A6822
:100DAC0080239B021340F0D100E0C046019B1B68DE
:100DBC000222134000D199E0814B9B6838221340EA
:100DCC0006937F4BDB68032213400593069B102B85
:100DDC0002D1059B022B02D0069B002B35D1784B00
:100DEC001A688023DB00134005D0019BDB68002BC5
:100DFC0001D10123A6E2724B5B68744A13401900BF
:100E0C00019B5B691A026E4B0A435A60069B002BCE
:100E1C0012D16B4B1B686E4A13401900019B1A6967
:100E2C00674B0A431A60664B1B68DB0A07221340A8
:100E3C00684ADA40684B1A60684B1B681800FFF769
:100E4C0097FD031E51D001237CE2019BDB68002B34
:100E5C0030D05B4B1B685E4A13401900019B1A692A
:100E6C00574B0A431A60564B1A68554B8021490060
:100E7C000A431A60FFF7D2FD0300049308E0FFF762
:100E8C00CDFD0200049BD31A022B01D9032359E296
:100E9C004B4B1A688023DB001340F0D0484B5B6847
:100EAC004A4A13401900019B5B691A02444B0A43DE
:100EBC005A601BE0424B1A68414B49490A401A6080
:100ECC00FFF7ACFD0300049308E0FFF7A7FD020059
:100EDC00049BD31A022B01D9032333E2384B1A6833
:100EEC008023DB001340F0D100E0C046019B1B685F
:100EFC000822134047D0324B9B6838221340182BE2
:100F0C000AD12F4B1B6E022213403CD0019B9B69D4
:100F1C00002B38D1012315E2019B9B69002B19D0C2
:100F2C00274B1A6E264B01210A431A66FFF776FDF2
:100F3C000300049308E0FFF771FD0200049BD31A31
:100F4C00022B01D90323FDE11D4B1B6E0222134022
:100F5C00F1D018E01A4B1A6E194B01218A431A660C
:100F6C00FFF75CFD0300049308E0FFF757FD020058
:100F7C00049BD31A022B01D90323E3E1104B1B6E04
:100F8C0002221340F1D1019B1B680422134000D1B3
:100F9C00C6E01F236B4400221A70094B9B68382251
:100FAC001340202B1ED1064BDB6D0222134000D1C7
:100FBC00B6E0019B9B68002B00D0B1E00123C1E19E
:100FCC0000100240FFFFFEFFFFFFFBFFFF80FFFF53
:100FDC00FFC7FFFF0024F4000000002004000020E5
:100FEC00FFFEFFFFB54BDA6B80235B05134001D18D
:100FFC00012300E00023002B11D0B04BDA6BAF4B78
:10100C00802149050A43DA63AC4BDA6B80235B051C
:10101C0013400393039B1F236B4401221A70A84BAC
:10102C001A6880235B0013401AD1A54B1A68A44B95
:10103C00802149000A431A60FFF7F0FC0300049377
:10104C0008E0FFF7EBFC0200049BD31A022B01D93A
:10105C00032377E19A4B1A6880235B001340F0D08E
:10106C00019B9B68012B06D1944BDA6D934B0121AC
:10107C000A43DA651CE0019B9B68052B0CD18F4B56
:10108C00DA6D8E4B04210A43DA658C4BDA6D8B4B8F
:10109C0001210A43DA650BE0884BDA6D874B01219D
:1010AC008A43DA65854BDA6D844B04218A43DA6511
:1010BC00019B9B68002B14D0FFF7B0FC030004933A
:1010CC0009E0FFF7ABFC0200049BD31A7D4A934264
:1010DC0001D9032336E1794BDB6D02221340F0D0AA
:1010EC0013E0FFF79BFC0300049309E0FFF796FC69
:1010FC000200049BD31A734A934201D9032321E1C2
:10110C006E4BDB6D02221340F0D11F236B441B7816
:10111C00012B05D1694BDA6B684B6B490A40DA63DA
:10112C00019B1B682022134039D0019BDB69002BEB
:10113C001BD0624B1A68614B8021C9030A431A60A9
:10114C00FFF76CFC0300049308E0FFF767FC020058
:10115C00049BD31A022B01D90323F3E0574B1A68D3
:10116C0080231B041340F0D019E0544B1A68534BE6
:10117C0056490A401A60FFF751FC0300049308E03B
:10118C00FFF74CFC0200049BD31A022B01D903235A
:10119C00D8E04A4B1A6880231B041340F0D1019B02
:1011AC001B6A002B00D1CCE0444B9B6838221340C7
:1011BC00102B00D17BE0019B1B6A022B56D13F4BBD
:1011CC001A683E4B42490A401A60FFF727FC03009D
:1011DC00049308E0FFF722FC0200049BD31A022BB5
:1011EC0001D90323AEE0354B1A6880239B041340CE
:1011FC00F0D1324BDB68374A13401900019B5A6A15
:10120C00019B9B6A1A43019BDB6A1B021A43019BDD
:10121C001B6B1A43019B5B6B1A43019B9B6B1A4321
:10122C00264B0A43DA60254B1A68244B802149046B
:10123C000A431A60214BDA68204B802149050A4386
:10124C00DA60FFF7EBFB0300049308E0FFF7E6FB23
:10125C000200049BD31A022B01D9032372E0174B13
:10126C001A6880239B041340F0D06AE0134B1A6871
:10127C00124B17490A401A60FFF7D0FB0300049386
:10128C0008E0FFF7CBFB0200049BD31A022B01D919
:10129C00032357E0094B1A6880239B041340F0D1B9
:1012AC00064BDA68054B0C490A40DA6049E0019BB1
:1012BC001B6A012B12D1012344E0C04600100240EE
:1012CC000070004088130000FFFFFFEFFFFFBFFF1F
:1012DC00FFFFFFFE8C80C111FCFFFEEE1B4BDB6899
:1012EC000593059B03221A40019B5B6A9A4226D107
:1012FC00059B70221A40019B9B6A9A421FD1059A4A
:10130C00FE23DB011A40019BDB6A1B029A4216D1B9
:10131C00059AF8239B031A40019B1B6B9A420ED132
:10132C00059AE0231B051A40019B5B6B9A4206D180
:10133C00059B5B0F5A07019B9B6B9A4201D00123C3
:10134C0000E00023180009B000BDC04600100240A8
:10135C0000B585B001900091019B002B01D10123B8
:10136C00E9E0764B1B6807221340009A9A421ED97B
:10137C00724B1B68072293431900704B009A0A4367
:10138C001A60FFF74BFB0300039309E0FFF746FBE2
:10139C000200039BD31A6A4A934201D90323CAE081
:1013AC00664B1B6807221340009A9A42EED1019BB0
:1013BC001B680222134015D0019B1B6804221340AA
:1013CC0006D0604B9A685F4BE021C9010A439A60D2
:1013DC005C4B9B685C4A13401900019B9A68594B03
:1013EC000A439A60019B1B680122134057D0019B52
:1013FC005B68012B07D1534B1A6880239B02134067
:10140C002BD1012397E0019B5B68022B07D14D4B3D
:10141C001A6880239B0413401FD101238BE0019B8E
:10142C005B68002B07D1474B1A688023DB00134005
:10143C0013D101237FE0019B5B68032B06D1414B49
:10144C001B6E0222134008D1012374E03D4BDB6D6F
:10145C000222134001D101236DE03A4B9B68072215
:10146C0093431900019B5A68364B0A439A60FFF765
:10147C00D5FA0300039309E0FFF7D0FA0200039BAF
:10148C00D31A2F4A934201D9032354E02D4B9B6866
:10149C0038221A40019B5B68DB009A42ECD1274B47
:1014AC001B6807221340009A9A421ED2234B1B68DA
:1014BC00072293431900214B009A0A431A60FFF745
:1014CC00ADFA0300039309E0FFF7A8FA0200039BAF
:1014DC00D31A1B4A934201D903232CE0174B1B68E8
:1014EC0007221340009A9A42EED1019B1B680422FA
:1014FC00134009D0134B9B68144A13401900019BED
:10150C00DA68104B0A439A6000F028F801000D4B82
:10151C009B681B0A0F221A400D4B9200D3581F22B6
:10152C0013400A00DA400B4B1A600B4B1B68180077
:10153C00FFF71EFA0300180005B000BD00200240A2
:10154C008813000000100240FFF0FFFFFF8FFFFF29
:10155C002C640008000000200400002000B587B0B7
:10156C003B4B9B68382213400FD1394B1B68DB0A6D
:10157C000722134001229A4013000093009935482A
:10158C00FEF796FD030004935DE0314B9B68382217
:10159C001340082B02D1304B049354E02C4B9B6826
:1015AC0038221340102B38D1294BDB68032213400F
:1015BC000393274BDB681B0907221340013302936B
:1015CC00039B032B0DD102992348FEF771FD0300F9
:1015DC0019001F4BDB681B0A7F2213404B430593FA
:1015EC000DE002991B48FEF763FD03001900184B30
:1015FC00DB681B0A7F2213404B430593C046144BF8
:10160C00DB685B0F072213400133019301990598A6
:10161C00FEF74EFD0300049315E00D4B9B6838223A
:10162C001340202B03D180231B0204930BE0084BA7
:10163C009B6838221340182B03D1FA23DB01049347
:10164C0001E000230493049B180007B000BDC046C2
:10165C00001002400024F40000127A0000B587B09C
:10166C0001900091002305934DE1009B1B68012123
:10167C00059A91400A0013400393039B002B00D161
:10168C003EE1009B5B6803221340012B05D0009BBD
:10169C005B6803221340022B30D1019B9B6804939F
:1016AC00059B5B0003229A401300DA43049B134012
:1016BC000493009BDA68059B5B009A401300049A24
:1016CC0013430493019B049A9A60019B5B680493F7
:1016DC000122059B9A401300DA43049B13400493A8
:1016EC00009B5B681B0901221A40059B9A40130062
:1016FC00049A13430493019B049A5A60009B5B6801
:10170C0003221340032B17D0019BDB680493059B2A
:10171C005B0003229A401300DA43049B13400493AA
:10172C00009B9A68059B5B009A401300049A134334
:10173C000493019B049ADA60009B5B6803221340BC
:10174C00022B23D1059BDA08019B08329200D35857
:10175C000493059B072213409B000F229A40130011
:10176C00DA43049B13400493009B1A69059B0721E1
:10177C000B409B009A401300049A13430493059B5F
:10178C00DA08019B083292000499D150019B1B6826
:10179C000493059B5B0003229A401300DA43049BDD
:1017AC0013400493009B5B6803221A40059B5B006B
:1017BC009A401300049A13430493019B049A1A60F1
:1017CC00009B5A68C0239B02134000D198E0534AF7
:1017DC00059B9B0818339B009B580493059B032285
:1017EC001340DB000F229A401300DA43049B134092
:1017FC000493019AA023DB059A4219D0019B484A15
:10180C00934213D0019B474A93420DD0019B464A09
:10181C00934207D0019B454A934201D1042308E02F
:10182C00052306E0032304E0022302E0012300E089
:10183C000023059A03210A40D2009340049A1343D3
:10184C0004933649059B9B0818339B00049A5A5005
:10185C00324B1B680493039BDA43049B13400493A1
:10186C00009B5A6880235B03134003D0049A039BAC
:10187C0013430493294B049A1A60284B5B68049316
:10188C00039BDA43049B13400493009B5A68802308
:10189C009B03134003D0049A039B134304931F4BE5
:1018AC00049A5A601D4A8423D3580493039BDA4349
:1018BC00049B13400493009B5A6880239B021340A3
:1018CC0003D0049A039B1343049314498422049B6E
:1018DC008B50124A8023D3580493039BDA43049B06
:1018EC0013400493009B5A6880235B02134003D07F
:1018FC00049A039B1343049308498022049B8B5046
:10190C00059B01330593009B1A68059BDA40131E57
:10191C0000D0AAE6C046C04607B000BD0018024081
:10192C000004005000080050000C00500010005043
:10193C0082B00190080011006B460233021C1A8021
:10194C006B4601330A1C1A706B4601331B78002B53
:10195C0005D06B4602331A88019B9A6104E06B46F2
:10196C0002331A88019B9A62C04602B0704784B059
:10197C0001900A006B4602331A80019B5B6903934A
:10198C006B4602331B88039A13401A04039BDB43F8
:10199C006946023109880B401A43019B9A61C04683
:1019AC0004B0704700B583B002006B4606331A8052
:1019BC00134BDB686A460632128813400AD0104B70
:1019CC006A4606321288DA606B4606331B881800AA
:1019DC0001F06CFB0A4B1B696A46063212881340F5
:1019EC000AD0074B6A46063212881A616B460633D8
:1019FC001B88180001F014FBC04603B000BDC046A4
:101A0C000018024000B585B00190019B002B01D15C
:101A1C0001234EE1019B5C229B5CDBB2002B07D1C6
:101A2C00019B5D2200219954019B1800FEF7D2FD09
:101A3C00019B1B689A69019B1B6810218A439A6160
:101A4C00FEF7ECFF0300039312E0FEF7E7FF020042
:101A5C00039BD31A0A2B0BD9019B1B6E01221A4331
:101A6C00019B1A66019B5C2203219954012320E1FE
:101A7C00019B1B689B6908221340082BE5D0019B36
:101A8C001B689A69019B1B6801210A439A61FEF746
:101A9C00C5FF0300039312E0FEF7C0FF0200039B97
:101AAC00D31A0A2B0BD9019B1B6E01221A43019BE3
:101ABC001A66019B5C22032199540123F9E0019BD6
:101ACC001B689B6901221340E6D0019B1B689A6935
:101ADC00019B1B6802210A439A61019B1B68764A91
:101AEC00934203D1754A019B5B681360019B1B7C7D
:101AFC00012B08D1019B1B689A69019B1B68402133
:101B0C008A439A6107E0019B1B689A69019B1B68D9
:101B1C0040210A439A61019B5B7C012B09D1019BFB
:101B2C001B689A69019B1B688021C9010A439A6151
:101B3C0007E0019B1B689A69019B1B6860490A407E
:101B4C009A61019B9B7C012B08D1019B1B689A69B4
:101B5C00019B1B685B490A409A6108E0019B1B686A
:101B6C009A69019B1B68802149010A439A61019B78
:101B7C001B689B69544A13401900019B9A68019B8E
:101B8C001B680A439A61019B1B689A69019B1B683D
:101B9C00A4218A439A61019B1B681A69019B1B68EB
:101BAC0010218A431A61019BDB68012B08D1019B30
:101BBC001B689A69019B1B6804210A439A612CE0FB
:101BCC00019BDB68002B28D0019BDB68022B1CD00F
:101BDC00019B1B689A69019B1B6880210A439A61CF
:101BEC00019B1B681A69019B1B6810210A431A612F
:101BFC00019BDB68032B10D1019B1B689A69019B2D
:101C0C001B6820210A439A6107E0019B1B689A69B3
:101C1C00019B1B6820210A439A61019B9B69013B34
:101C2C005A06019BDB69013B1B021A43019B1B6A91
:101C3C00013B1A431100019B5B69013B1A04019B98
:101C4C001B680A43DA61019B9A68C0239B009A4285
:101C5C0015D1019B9B6A5A1E019BDB6A013B1B023F
:101C6C001A43019B1B6B013B1B011A431100019B87
:101C7C005B6A013B1A04019B1B680A43DA60019BF7
:101C8C001B68C0229958019BDA6B019B1B680A43A5
:101C9C00C0215A50019B180000F024FC019B00222B
:101CAC009A65019B00221A66019B5C2201219954C2
:101CBC000023180005B000BD006400400065004022
:101CCC00FFBFFFFFFFEFFFFFFFFCFFFF86B00190A0
:101CDC00009117236B44019A5C21525C1A701723F4
:101CEC006B441B78012B04D017236B441B78022BFD
:101CFC003DD1009B1B68002B19D1009B9B689A0758
:101D0C00009BDB68DB061A43009B1B691B041A4310
:101D1C00009B5B6913430493019B1A6C009B5B68EB
:101D2C009B00D3180293029B049A1A601DE0009B3F
:101D3C00DB685A07009B1B6913430493009B9B6849
:101D4C009A07009B5B6913430393019B5A6C009B9E
:101D5C005B68DB00D3180293029B049A1A60029B07
:101D6C0004330293029B039A1A60002306E0019B42
:101D7C001B6E02221A43019B1A660123180006B03F
:101D8C00704784B00390029101920093039B5C22F4
:101D9C009B5CDBB2012B17D1039B1B6880229B58E9
:101DAC003F2293431900029B1A01019B9B001A438B
:101DBC00009B5B001A43049B1A43039B1B680A435A
:101DCC0080215A50002306E0039B1B6E04221A4309
:101DDC00039B1A660123180004B0704782B001906F
:101DEC00019B5C229B5CDBB2012B10D1019B5C2222
:101DFC0002219954019B1B689A69019B1B68012164
:101E0C008A439A61019B00221A66002306E0019B1B
:101E1C001B6E04221A43019B1A660123180002B0A0
:101E2C00704700B587B0039002910192039B5C222E
:101E3C009B5CDBB2022B2DD1039B1B68C4229A58EE
:101E4C0080239B03134008D0039B1B6E80229200BF
:101E5C001A43039B1A66012323E0039B1B68C422CD
:101E6C009B581B0C032213400593059B019A029966
:101E7C00039800F0A1FB039B1B680121059A91407C
:101E8C000A00CC215A500122059B9A40039B9A656B
:101E9C00002306E0039B1B6E08221A43039B1A6661
:101EAC000123180007B000BD8AB003900291019283
:101EBC0000931B236B44039A5C21525C1A701B2306
:101ECC006B441B78022B00D0C1E0029B402B21D12C
:101EDC00039B1B6890229B580F22134008D1039B35
:101EEC001B6E802252001A43039B1A660123B5E035
:101EFC00039B1B6890229B581B0A032213400793D9
:101F0C00039B996C079A1300DB009B18DB00CB1822
:101F1C00099320E0039B1B6898229B580F221340C7
:101F2C0008D1039B1B6E802252001A43039B1A6636
:101F3C00012393E0039B1B6898229B581B0A0322E6
:101F4C0013400793039BD96C079A1300DB009B1873
:101F5C00DB00CB180993099B1A688023DB051A4018
:101F6C00019B5A60019B5B68002B07D1099B1B6886
:101F7C009B0C5B055A0D019B1A6005E0099B1B68C5
:101F8C00DB00DA08019B1A60099B1A6880239B0509
:101F9C001A40019B9A60099B1B68DB0FDA07019BB7
:101FAC001A61099B04330993099B1B681B041A0CC7
:101FBC00019BDA61099B1A68F0231B031A40019BF1
:101FCC00DA60099B1A6880235B031A40019B5A61F3
:101FDC00099B1A6880239B031A40019B9A61099BF9
:101FEC001B681B0E7F221A40019B1A62099B1B68FF
:101FFC00DA0F019B5A62099B04330993099B0593E1
:10200C00002308930AE0059A089BD2180099089BB4
:10201C00CB1812781A70089B01330893019BDB686C
:10202C001B0C104AD35C1A00089B9342EBD3029B07
:10203C00402B05D1039B1B689421079A5A5004E04E
:10204C00039B1B689C21079A5A50002306E0039BB4
:10205C001B6E08221A43039B1A66012318000AB050
:10206C007047C0466C64000886B0039002910192E0
:10207C0017236B44039A5C21525C1A7017236B4430
:10208C001B78012B05D017236B441B78022B00D037
:10209C00B4E0039B1B689B6D0493029B07221340C7
:1020AC0003D0049B0122134034D0029B38221340EE
:1020BC0003D0049B022213402CD0029AE0235B0035
:1020CC00134003D0049B0422134023D0029AF02324
:1020DC005B01134003D0049B082213401AD0029AD0
:1020EC00E0231B02134003D0049B1022134011D099
:1020FC00029AC0239B02134003D0049B202213405E
:10210C0008D0029AFC231B0413400BD0049B4022E2
:10211C00134007D1039B1B68DA6D039B1B680121DD
:10212C000A43DA65029B0722134003D0049B012269
:10213C00134034D1029B3822134003D0049B02225B
:10214C0013402CD1029AE0235B00134003D0049B74
:10215C000422134023D1029AF0235B01134003D0D5
:10216C00049B082213401AD1029AE0231B0213404D
:10217C0003D0049B1022134011D1029AC0239B025E
:10218C00134003D0049B2022134008D1029AFC2355
:10219C001B0413400BD0049B4022134007D0039B1D
:1021AC001B68DA6D039B1B6802210A43DA65029BEC
:1021BC008022134009D0039B1B68DC229958039B97
:1021CC001B68019A0A43DC215A50029A80235B0057
:1021DC00134009D0039B1B68E0229958039B1B6892
:1021EC00019A0A43E0215A50039B1B68596D039BCB
:1021FC001B68029A0A435A65002306E0039B1B6E78
:10220C0002221A43039B1A660123180006B070477A
:10221C0000B58DB00190019B1B681A6DE0235B012A
:10222C0013400B93019B1B685A6D0B9B13400B9334
:10223C00019B1B681B6D072213400A93019B1B68B3
:10224C005A6D0A9B13400A93019B1B681B6D382225
:10225C0013400993019B1B685A6D099B134009930A
:10226C00019B1B681A6DF1231B0413400893019BFF
:10227C001B685A6D089B13400893019B1B681A6DD1
:10228C00E0231B0313400793019B1B685A6D079BAC
:10229C0013400793019B1B685B6D0693019B1B68A6
:1022AC001B6D0593059B402213400BD0069B4022CF
:1022BC00134007D0019B1B6840221A65019B180034
:1022CC0000F000F9059A80235B0013401BD0069A9E
:1022DC0080235B00134016D0019B1B68D8229B58AF
:1022EC000493019B1B68E0229A58049B13400493AF
:1022FC00019B1B68802252001A65049A019B1100F5
:10230C00180000F0CFF80B9B002B09D0019B1B6829
:10231C000B9A1A650B9A019B1100180000F0ABF890
:10232C000A9B002B09D0019B1B680A9A1A650A9A12
:10233C00019B1100180000F0E7FB099B002B09D052
:10234C00019B1B68099A1A65099A019B11001800D8
:10235C0000F097F8059A80239B0013400DD0069A45
:10236C0080239B00134008D0019B1B6880229200A5
:10237C001A65019B180000F08AF8059B8022134017
:10238C0019D0069B8022134015D0019B1B68D422C8
:10239C009B580393019B1B68DC229A58039B1340A8
:1023AC000393019B1B6880221A65039A019B110001
:1023BC00180000F071F8059A80239B0113400DD092
:1023CC00069A80239B01134008D0019B1B68802236
:1023DC0092011A65019B180000F06AF8059A802397
:1023EC001B0213400DD0069A80231B02134008D009
:1023FC00019B1B68802212021A65019B180000F0D9
:10240C005CF8059A8023DB0113400FD0069A8023D9
:10241C00DB0113400AD0019B1B688022D2011A6594
:10242C00019B1B6E80221A43019B1A66079B002B93
:10243C0009D0019B1B68079A1A65079A019B11002A
:10244C00180000F049F8089B002B09D0019B1B6871
:10245C00089A1A65019B1A6E089B1A43019B1A660F
:10246C00019B1B6E002B03D0019B180000F02FF872
:10247C00C0460DB000BD82B001900091C04602B0C4
:10248C00704782B001900091C04602B0704782B094
:10249C000190C04602B0704782B001900091C046D6
:1024AC0002B0704782B001900091C04602B07047F4
:1024BC0082B00190C04602B0704782B00190C04615
:1024CC0002B0704782B00190C04602B0704782B033
:1024DC000190C04602B0704782B001900091C04696
:1024EC0002B0704784B001902F4B0293019B1B6884
:1024FC002E4A934205D1029BD42292009446634407
:10250C000293019B029A1A64019B1B6880229B58C0
:10251C00274A13401900019B5B6B1A04019B1B6833
:10252C000A4380215A50029B70331A00019B5A6453
:10253C00019B1B6880229B581E4A13401900019B6B
:10254C009B6B1A06019B1B680A4380215A50029B05
:10255C00B0331A00019B9A64029B8933FF331A0033
:10256C00019BDA64029B982292009A18019B1A65CF
:10257C00029B9E2292009A18019B5A65029B039320
:10258C0005E0039B00221A60039B04330393029B18
:10259C00D422920094466344039A9A42F1D3C046E3
:1025AC00C04604B07047C04600B40040006800400C
:1025BC00FFFFE0FFFFFFFFF088B003900291019254
:1025CC000093029B5B68002B0AD1029B1A69029B49
:1025DC009B681A43029B1B689B04134307930BE0F5
:1025EC00029B1A69029B9B681A43029B1B6813434C
:1025FC008022D20513430793029B1B6A1A06029B87
:10260C00DB691A43029B9B691A43029B5B691A4361
:10261C00029BDB6813430493039B596D009A1300D0
:10262C00DB009B18DB00CB180693069B079A1A60FD
:10263C00069B04330693069B049A1A60069B04338C
:10264C0006930023059320E0059B0333019AD318CE
:10265C001B781A06059B02330199CB181B781B04B7
:10266C001A43059B01330199CB181B781B021343AA
:10267C000199059A8A1812781A43069B1A60069BD0
:10268C0004330693059B04330593029BDB681B0CF8
:10269C00044AD35C1A00059B9342D5D3C046C0466E
:1026AC0008B070476C64000800B583B00190019BC2
:1026BC00002B01D101234AE0019B3D229B5CDBB244
:1026CC00002B07D1019B3C2200219954019B18003F
:1026DC0000F040F8019B3D2202219954019B1A689D
:1026EC00019B04331900100000F0B4F8019B482240
:1026FC0001219954019B3E2201219954019B3F22B7
:10270C0001219954019B402201219954019B4122A2
:10271C0001219954019B422201219954019B43228E
:10272C0001219954019B442201219954019B45227A
:10273C0001219954019B462201219954019B472266
:10274C0001219954019B3D22012199540023180029
:10275C0003B000BD82B00190C04602B070470000CB
:10276C0084B00190019B3D229B5CDBB2012B01D01C
:10277C0001233FE0019B3D2202219954019B1B68E0
:10278C001E4A934214D0019B1A688023DB059A429F
:10279C000ED0019B1B681A4A934209D0019B1B68FF
:1027AC00184A934204D0019B1B68174A934216D1D6
:1027BC00019B1B689B68154A13400393039B062BD4
:1027CC0016D0039A80235B029A4211D0019B1B689E
:1027DC001A68019B1B6801210A431A6008E0019BDF
:1027EC001B681A68019B1B6801210A431A6000E0F0
:1027FC00C0460023180004B07047C046002C0140AE
:10280C0000040040000800400040014007000100A7
:10281C0082B00190019B1B681B6A0C4A13400DD1BE
:10282C00019B1B681B6A0A4A134007D1019B1B685A
:10283C001A68019B1B6801218A431A60019B3D2287
:10284C00012199540023180002B0704711110000A7
:10285C004404000084B001900091019B1B68039319
:10286C00019B384A93420CD0019A8023DB059A4293
:10287C0007D0019B344A934203D0019B334A9342C5
:10288C0008D1039B702293430393009B5B68039ACC
:10289C0013430393019B2B4A93421CD0019A802330
:1028AC00DB059A4217D0019B274A934213D0019B18
:1028BC00264A93420FD0019B254A93420BD0019B91
:1028CC00244A934207D0019B234A934203D0019B95
:1028DC00224A934208D1039B214A13400393009B45
:1028EC00DB68039A13430393039B802293431A00E0
:1028FC00009B5B6913430393019B039A1A60009B33
:10290C009A68019BDA62009B1A68019B9A62019B90
:10291C000C4A93420BD0019B0E4A934207D0019B69
:10292C000D4A934203D0019B0C4A934203D1009B66
:10293C001A69019B1A63019B01225A61C04604B0BB
:10294C007047C046002C01400004004000080040C5
:10295C00002000400040014000440140004801407C
:10296C00FFFCFFFF00B589B0434B444A1A60424B51
:10297C000022DA60404B00229A603F4B01225A60E1
:10298C003D4B0022DA633C4B00221A743A4B002276
:10299C005A74394B00229A74374B00229A63364B87
:1029AC0001225A63344B04225A61334B01229A613F
:1029BC00314B0B22DA61304B04221A622E4B180079
:1029CC00FFF720F802AB00221A6002AB00225A601B
:1029DC0002AB02229A6002AB0122DA6002AB122235
:1029EC00FF321A6102AB264A5A6102AA224B11002D
:1029FC001800FFF76BF920480023009300230222F4
:102A0C000221FFF7BEF91F4B00225A601D4B00221A
:102A1C009A611C4B00229A601A4B912252001A6048
:102A2C00184B80221203DA60134B1800FFF7D6F90B
:102A3C00114B002201211800FFF716FB124B134A11
:102A4C001A60114B17225A600F4B08221A720E4B48
:102A5C00180003F077F80E4B0E4A1A600C4B7322D9
:102A6C005A600B4B29221A72094B180003F06AF8B2
:102A7C00C04609B000BDC046F40000200064004010
:102A8C00FF07000058010020D80000208001002022
:102A9C00601400206802002000B583B001900A0089
:102AAC006B4603331A70019B6A46033212781A7014
:102ABC00019A0449044B1800FFF7B3F9C04603B060
:102ACC0000BDC04658010020F400002084B00190E5
:102ADC0000910F236B4400221A70019B1B78072B6B
:102AEC0008D8019B1A78009B1A700F236B440122A3
:102AFC001A7003E0019B013300221A700F236B4400
:102B0C001B78180004B0704700B58FB0019000918D
:102B1C00009B012213401AD002AB04AA0198402159
:102B2C00FFF7C2F90B4B180003F027F8031E0ED168
:102B3C00094A02AB11001800FFF7C8FF0300012B74
:102B4C0005D102A9034BFF22180003F0B5F8C046CB
:102B5C000FB000BDD80000207C01002082B0020024
:102B6C006B4607331A706B4607331B781B09DBB2B5
:102B7C001A1C131CDB189B18DB18DBB26A460732D5
:102B8C001278D31ADBB2180002B0704710B588B0B7
:102B9C0003900291019204AB164A13CA13C31F236C
:102BAC006B4400221A70019B134A93421CDD019B5B
:102BBC00124A934218DC019B180000F06FFB0300D3
:102BCC00012B02D104AB1D225A70029B0C2B0BDC87
:102BDC00039BDAB2029B013B04A9CB5C9A4203D85B
:102BEC001F236B4401221A701F236B441B7818009F
:102BFC0008B010BD206300086B070000340800000B
:102C0C0082B00190C04602B0704700B585B001900B
:102C1C000F236B4400221A70019B02331B7818009F
:102C2C00FFF79CFF019B02331B781800FFF796FF00
:102C3C000300182B21D8019B03331B781800FFF7D6
:102C4C008DFF019B03331B781800FFF787FF0300F0
:102C5C003B2B12D8019B04331B781800FFF77EFF27
:102C6C00019B04331B781800FFF778FF03003B2B04
:102C7C0003D80F236B4401221A700F236B441B786B
:102C8C00180005B000BD000000B591B00190019B8B
:102C9C001800FFF7BAFF0300012B3CD13F236B4414
:102CAC0001221A7005AB3F226A4412781A70019BFC
:102CBC0002331B781800FFF751FF03001A0005AB15
:102CCC00DA60019B03331B781800FFF747FF030002
:102CDC001A0005AB9A60019B04331B781800FFF7B0
:102CEC003DFF03001A0005AB5A6005AA134B1100F7
:102CFC00180002F049FF3F236B4404221A7003AB07
:102D0C003F226A4412785A7003AA0D4B1100180026
:102D1C0002F03AFF0EE03F236B4405221A7003AB1E
:102D2C003F226A4412785A7003AA054B110018000E
:102D3C0002F02AFFC04611B000BDC046601400204E
:102D4C00D800002070B590B00190019B02331B7825
:102D5C001800FFF703FF03001D00019B03331B78D2
:102D6C001800FFF7FBFE03001E00019B04331B78C9
:102D7C001800FFF7F3FE03001A00642353431C00F2
:102D8C00019B05331B781800FFF7E8FE0300E318DE
:102D9C001A0031002800FFF7F9FE0300012B46D181
:102DAC003F236B4402221A7005AB3F226A4412780F
:102DBC001A70019B02331B781800FFF7CFFE03003B
:102DCC001A0005AB1A61019B03331B781800FFF73F
:102DDC00C5FE03001A0005AB5A61019B05331B7835
:102DEC001800FFF7BBFE03001A0005AB9A61019BAC
:102DFC0004331B781800FFF7B1FE03001A00154BC3
:102E0C001A7005AA144B1100180002F0BDFE3F23E6
:102E1C006B4404221A7003AB3F226A4412785A7036
:102E2C0003AA0E4B1100180002F0AEFE0EE03F2379
:102E3C006B4405221A7003AB3F226A4412785A7015
:102E4C0003AA064B1100180002F09EFEC04610B0FB
:102E5C0070BDC0467D01002060140020D800002009
:102E6C0000B585B001900F236B4400221A70019BB2
:102E7C0002331B781800FFF771FE019B02331B789D
:102E8C001800FFF76BFE0300182B12D8019B0333BD
:102E9C001B781800FFF762FE019B03331B781800A8
:102EAC00FFF75CFE03003B2B03D80F236B4401227E
:102EBC001A700F236B441B78180005B000BD00007E
:102ECC0000B591B00190019B1800FFF7C9FF0300FA
:102EDC00012B32D13F236B4403221A7005AB3F22E6
:102EEC006A4412781A70019B02331B781800FFF7A2
:102EFC0035FE03001A0005ABDA60019B03331B7827
:102F0C001800FFF72BFE03001A0005AB9A6005AA08
:102F1C00134B1100180002F037FE3F236B440422C0
:102F2C001A7003AB3F226A4412785A7003AA0D4BF5
:102F3C001100180002F028FE0EE03F236B4405221E
:102F4C001A7003AB3F226A4412785A7003AA054BDD
:102F5C001100180002F018FEC04611B000BDC046AA
:102F6C0060140020D800002000B585B00190074BFC
:102F7C001A7803AB1A7003AB55225A7003AB0121BC
:102F8C001800FFF789FDC04605B000BD7C0100208C
:102F9C0000B585B00190074B1A7803AB1A7003ABE0
:102FAC00AA225A7003AB01211800FFF775FDC04629
:102FBC0005B000BD7C01002000B585B00F236B442B
:102FCC0000221A701DE001AA134B1100180002F028
:102FDC0025FE0300012B04D10F236B4401AA527868
:102FEC001A700F236B441B78052B0AD80F236B44E4
:102FFC001B780A4ADB00D31804331B6801AA1000A3
:10300C009847054B1521180002F07BFE031EDAD001
:10301C00C046C04605B000BDD80000207C64000846
:10302C0000B58FB002006B4606331A8003AB180054
:10303C0028231A00002103F015F937236B440022D2
:10304C001A70164B01221A70154B01221A70154B6F
:10305C001B78012B0FD137236B4406221A7003AB5C
:10306C0037226A4412781A7003AA0F4B1100180009
:10307C0002F08AFD0EE037236B4407221A7003AB73
:10308C0037226A4412781A7003AA074B11001800F1
:10309C0002F07AFDC0460FB000BDC0463A020020D7
:1030AC003B020020390200206014002000B583B0E0
:1030BC0002006B4606331A80064B00221A70064B30
:1030CC0000221A70054B0321180002F084FFC04641
:1030DC0003B000BD3A0200203B0200202800002073
:1030EC0082B00190024B01221A70C04602B07047A8
:1030FC003902002010B58EB0019037236B440022AA
:10310C001A7003AB180028231A00002103F0AAF848
:10311C0080235A0003A91D48002300F0BBFF019B2C
:10312C0003AA283313CA13C313CA13C313CA13C372
:10313C0012681A60164B1978019B50229954144B43
:10314C001B78002B0FD137236B4403221A70019B81
:10315C0037226A4412781A70019A0E4B110018002B
:10316C0002F012FD0EE037236B4402221A70019B11
:10317C0037226A4412781A70019A064B1100180013
:10318C0002F002FDC0460EB010BDC0463C0200204D
:10319C0038020020CC60002000B58DB001AB1800C7
:1031AC0028231A00002103F05DF82F236B44002222
:1031BC001A70114B1B683B2B0CD88023DB010F4A78
:1031CC0019001000FEF7D3FB0B4B1B685A1C0A4B63
:1031DC001A600EE02F236B4406221A7001AB2F22CB
:1031EC006A4412781A7001AA054B1100180002F0FB
:1031FC00CBFCC0460DB000BD7C1400200004005078
:10320C006014002000B58DB001AB180028231A0003
:10321C00002103F027F82F236B4400221A701A4B5D
:10322C001B78002B12D1194B1B78002B0ED12F239E
:10323C006B4404221A7001AB2F226A4412781A7064
:10324C0001AA134B1100180002F09EFC0E4B1B78C8
:10325C00012B0ED12F236B4405221A7001AB2F22A8
:10326C006A4412781A7001AA094B1100180002F076
:10327C008BFC084B1A68084B1100180002F09AFDE1
:10328C00C0460DB000BDC046390200203A020020F5
:10329C0060140020440000202800002000B583B0FA
:1032AC000190019B0322134006D1019B642118005D
:1032BC00FCF73AFF0B1E07D1019BC82251001800E6
:1032CC00FCF732FF0B1E01D1012300E00023DBB21F
:1032DC00180003B000BD10B586B0039002910192A6
:1032EC00039B0593029B0493029B09330C2118004A
:1032FC00FCF724FF0300013B059AD3180593029BAE
:10330C0009330C211800FCF763FF0B000493059B99
:10331C001800FFF7C3FF03001900049A13001B01E8
:10332C009B1A5B00CC18049A13005B009B185B0083
:10333C0005330A211800FCF701FF0300E218019B7A
:10334C00D318180006B010BD00B585B003900291DB
:10335C000192019A0299039B1800FFF7BCFF03002E
:10336C0007211800FCF734FF0B000133180005B0DF
:10337C0000BD82B00190C04602B0704700B589B064
:10338C00019003AB180014231A00002102F06AFF0D
:10339C0002AB00221A60244B1978019B50229954DD
:1033AC0003A9224B0022180000F060FB02A91F4B5E
:1033BC000022180000F046FC019B283319008023E2
:1033CC005A001A48002300F065FE03AB1B781A0064
:1033DC00019BDA6003AB5B781A00019B9A6003AB2C
:1033EC009B781A00019B5A6002AB9B781A00019BD8
:1033FC001A6102AB5B781A00019B5A6102ABDB7855
:10340C001A00019B9A6102AB1B781A00019BDA61CE
:10341C00019B04221A70019A054B1100180002F04E
:10342C00B3FBC04609B000BD380200203C020020AE
:10343C00CC60002000B589B0019002AB18001423B9
:10344C001A00002102F00EFF019BDB68DAB202AB1E
:10345C001A70019B9B68DAB202AB5A70019B5B68D5
:10346C00DAB202AB9A7002AB00225A6002AB0022B5
:10347C00DA6002AB00221A6102A91B4B0022180071
:10348C0000F04CFA194B1B78012B14D1019B042230
:10349C000021180002F0E6FE1F236B4406221A706E
:1034AC00019B1F226A4412781A70019A104B11006A
:1034BC00180002F069FB019B04220021180002F0A5
:1034CC00D1FE1F236B4404221A70019B1F226A44F5
:1034DC0012781A70019A064B1100180002F054FB76
:1034EC00C04609B000BDC0463C0200203902002095
:1034FC006014002000B585B0019002AB00221A6068
:10350C00019B5B69DAB202AB5A70019B1B69DAB2A0
:10351C0002AB9A70019B9B69DAB202ABDA70019B29
:10352C009B691800019B5B691900019B1B691A00C0
:10353C00FFF70AFF0300DAB202AB1A7002A91B4BA9
:10354C000022180000F0ECFA194B1B78012B14D157
:10355C00019B04220021180002F084FE0F236B440F
:10356C0006221A70019B0F226A4412781A70019A73
:10357C00104B1100180002F007FB019B04220021E4
:10358C00180002F06FFE0F236B4404221A70019B8B
:10359C000F226A4412781A70019A064B1100180017
:1035AC0002F0F2FAC04605B000BDC0463C02002055
:1035BC00390200206014002000B585B001902C4B1E
:1035CC001B781A00012313405A425341DBB21A00F4
:1035DC00274B1A70264B1978019B50229954019B4A
:1035EC00DB68D9B2019B28229954019B9B68D9B204
:1035FC00019B29229954019B2B2200219954019B58
:10360C0000225A63019B00229A63019B194ADA63D8
:10361C00019B00225A64019B482201219954019B71
:10362C0080225200DA64124B1B78012B08D1019BCB
:10363C0028331900104B0022180000F04FFB14E047
:10364C00019B04220021180002F00CFE0F236B4496
:10365C0006221A70019B0F226A4412781A70019A82
:10366C00064B1100180002F08FFAC04605B000BDE1
:10367C0038020020800000803C02002060140020F2
:10368C0000B583B001900B4B00221A700A4B00223C
:10369C001A708023DB01094800221900FEF748F953
:1036AC0080235A00064B1100180000F055FCC04650
:1036BC0003B000BD39020020380200200004005085
:1036CC003C02002000B585B00190FFF765FD019B21
:1036DC0004220021180002F0C5FD0F236B440122C7
:1036EC001A70019B0F226A4412781A70019A044BCB
:1036FC001100180002F048FAC04605B000BDC046E3
:10370C00CC60002010B5144B144A1A60124B0022E6
:10371C009A60114B7F22DA600F4BFF221A610E4B1D
:10372C0000225A610C4B180000F056F80C4B0D4A55
:10373C001A600B4BE6225A60094B55221A72084B41
:10374C00180002F0FFF9084B1A68084B110018001A
:10375C0002F030FBC04610BD3C02002000280040A7
:10376C00CC600020541500204400002028000020CC
:10377C0000B597B06B46180054231A00002102F0D4
:10378C0071FD1AE06A46124B1100180002F046FA5D
:10379C0057236B446A4612781A7057236B441B7874
:1037AC00072B0AD857236B441B780A4ADB00D31823
:1037BC0004331B686A4610009847054BFF2118001C
:1037CC0002F09FFA031EDDD0C046C04617B000BD04
:1037DC0060140020AC64000810B584B001900F2375
:1037EC006B4401221A70019B002B00D18DE0019BD0
:1037FC0029229B5CDBB2002B0BD1019B28220021E0
:10380C009954019B882212025A60019B1800FCF704
:10381C0023FF019B292202219954019B1B68DB6821
:10382C0010221340102B63D0019B1B68CA225A62D2
:10383C00019B1B6853225A620F246C44019B180095
:10384C0000F04DFD030023700F236B441B78002BFD
:10385C002DD1019B1B689A69019B1B682E490A405C
:10386C009A61019B1B689969019B9A68019B5B6932
:10387C001A43019BDB691A43019B1B680A439A613B
:10388C00019B1B68019A12691A61019B1B681969DB
:10389C00019BDB681A04019B1B680A431A610F2405
:1038AC006C44019B180000F05DFD030023700F2396
:1038BC006B441B78002B16D1019B1B689A69019BEA
:1038CC001B68D200D2089A61019B1B689969019B05
:1038DC005A6A019B1B6A1A43019B9B691A43019B01
:1038EC001B680A439A61019B1B68FF225A6203E022
:1038FC000F236B4400221A700F236B441B78002B90
:10390C0003D1019B2922012199540F236B441B786D
:10391C00180004B010BDC046BFFF8FFB10B586B0B9
:10392C00039002910192039B28229B5C012B01D1F5
:10393C00022393E0039B282201219954039B292203
:10394C0002219954039B1B68CA225A62039B1B6871
:10395C0053225A6213246C44039B180000F0BFFCE2
:10396C000300237013236B441B78002B62D1019B43
:10397C00002B25D1039B1B689B694022134002D16D
:10398C00029B0022DA70029B1B78180000F02EFDBF
:10399C0003001C04029B5B78180000F027FD030059
:1039AC001B021C43029B9B78180000F01FFD0300B8
:1039BC0022001A43029BDB789B051343059317E007
:1039CC00039B1B689B694022134002D1029B00227F
:1039DC00DA70029B1B781A04029B5B781B02134360
:1039EC00029A92781A43029BDB789B05134305934A
:1039FC00039B1B68059A1B490A401A60039B1B68B2
:103A0C009A69039B1B6818490A409A61039B1B68BF
:103A1C009969029BDA68029B1B691A43039B1B681A
:103A2C000A439A6113246C44039B180000F09AFC1F
:103A3C0003002370039B1B68FF225A6213236B4401
:103A4C001B78002B03D1039B292201219954039B42
:103A5C0028220021995413236B441B78180006B0BC
:103A6C0010BDC0467F7F7F00FFFFFBFF00B587B016
:103A7C00039002910192039B1B689A68029B5A6007
:103A8C00039B1B681B695B045A0C029B9A60039B8B
:103A9C001B681B68214A13400593059B1B0CDBB26A
:103AAC003F221340DAB2029B1A70059B1B0ADBB251
:103ABC007F221340DAB2029B5A70059BDBB27F2245
:103ACC001340DAB2029B9A70059B9B0DDBB201226C
:103ADC001340DAB2029BDA70019B002B1AD1029BC5
:103AEC001B78180000F0ABFC03001A00029B1A7044
:103AFC00029B5B78180000F0A2FC03001A00029BEA
:103B0C005A70029B9B78180000F099FC03001A0075
:103B1C00029B9A700023180007B000BD7F7F7F00C6
:103B2C0010B586B0039002910192039B28229B5CF6
:103B3C00012B01D102237FE0039B28220121995400
:103B4C00039B292202219954019B002B0ED1029B2D
:103B5C005B781A001023134008D0029B5B7810226C
:103B6C009343DBB20A33DAB2029B5A70019B002BEF
:103B7C001CD1029BDB78180000F038FC03001C04FD
:103B8C00029B5B78180000F031FC03001B021C4305
:103B9C00029B9B78180000F029FC030022001A43BA
:103BAC00029B1B785B03134305930EE0029BDB78AF
:103BBC001A04029B5B781B021343029A92781A43F5
:103BCC00029B1B785B0313430593039B1B68CA2260
:103BDC005A62039B1B6853225A6213246C44039B46
:103BEC00180000F07CFB0300237013236B441B783C
:103BFC00002B0DD1039B1B68059A11490A405A6092
:103C0C0013246C44039B180000F0ACFB03002370DE
:103C1C00039B1B68FF225A6213236B441B78002BF7
:103C2C0003D1039B292201219954039B28220021B3
:103C3C00995413236B441B78180006B010BDC04672
:103C4C003FFFFF0000B587B0039002910192039BE8
:103C5C001B685B68204A13400593059B1B0CDAB26A
:103C6C00029BDA70059B1B0ADBB21F221340DAB2EF
:103C7C00029B5A70059BDBB23F221340DAB2029BC7
:103C8C009A70059B5B0BDBB207221340DAB2029BE6
:103C9C001A70019B002B1AD1029BDB78180000F0E4
:103CAC00CEFB03001A00029BDA70029B5B781800B3
:103CBC0000F0C5FB03001A00029B5A70029B9B7814
:103CCC00180000F0BCFB03001A00029B9A70002342
:103CDC00180007B000BDC0463FFFFF0010B588B00C
:103CEC00039002910192039B28229B5C012B01D132
:103CFC00022327E1039B282201219954039B2922AB
:103D0C0002219954019B002B36D1039B1B689B69A4
:103D1C004022134002D1029B0022DA70029B1B78D6
:103D2C00180000F063FB03001C04029B5B78180076
:103D3C0000F05CFB03001B021C43029B9B781800E9
:103D4C0000F054FB030022001A43029BDB789B0516
:103D5C001A431400029B20229B5C180000F046FBC7
:103D6C0003001B0622001A43029BDB691A43029BC9
:103D7C005B691343079322E0039B1B689B694022FA
:103D8C00134002D1029B0022DA70029B1B781A04AA
:103D9C00029B5B781B021343029A92781A43029B94
:103DAC00DB789B051A43029B20215B5C1B061A43A4
:103DBC00029BDB691A43029B5B6913430793029BCB
:103DCC005A68029B9B6913430693039B1B68CA2288
:103DDC005A62039B1B6853225A62029B5A6A8023C5
:103DEC005B009A424CD1039B1B689A69039B1B682E
:103DFC0056490A409A61039B1B68DA6D039B1B684A
:103E0C0001210A43DA65FCF709FE0300059316E06D
:103E1C00FCF704FE0200059BD21AFA239B009A427F
:103E2C000DD9039B1B68FF225A62039B2922032195
:103E3C009954039B282200219954032382E0039B6D
:103E4C001B68DB6801221340E2D0039B1B68079AB6
:103E5C001A64039B1B68069A5A64039B1B689A6935
:103E6C00039B1B68802149000A439A61039B1B68D2
:103E7C009A69039B1B68802149010A439A614BE0B4
:103E8C00039B1B689A69039B1B6831490A409A6122
:103E9C00039B1B68DA6D039B1B6802210A43DA65DE
:103EAC00FCF7BCFD0300059316E0FCF7B7FD020020
:103EBC00059BD21AFA239B009A420DD9039B1B68CF
:103ECC00FF225A62039B292203219954039B282227
:103EDC0000219954032335E0039B1B68DB68022205
:103EEC001340E2D0039B1B68079A9A64039B1B68E0
:103EFC00069ADA64039B1B689A69039B1B688021F2
:103F0C0089000A439A61039B1B689A69039B1B688F
:103F1C00802189010A439A610E4A8023D3580D49A6
:103F2C0080221203134380228B50039B1B68FF22B9
:103F3C005A62039B292201219954039B28220021B8
:103F4C0099540023180008B010BDC046FFFEFFFFB7
:103F5C00FFFDFFFF0018024000B585B001900091F5
:103F6C00019B28229B5C012B01D1022386E0019B43
:103F7C00282201219954019B292202219954019B49
:103F8C001B68CA225A62019B1B6853225A62009A10
:103F9C0080235B009A4232D1019B1B689A69019B7A
:103FAC001B6838490A409A61019B1B689A69019BFE
:103FBC001B6835490A409A61FCF730FD03000393F6
:103FCC0016E0FCF72BFD0200039BD21AFA239B0090
:103FDC009A420DD9019B1B68FF225A62019B292230
:103FEC0003219954019B282200219954032345E075
:103FFC00019B1B68DB6801221340E2D031E0019B7E
:10400C001B689A69019B1B6820490A409A61019BB5
:10401C001B689A69019B1B681D490A409A61FCF751
:10402C00FDFC0300039316E0FCF7F8FC0200039B75
:10403C00D21AFA239B009A420DD9019B1B68FF22CE
:10404C005A62019B292203219954019B28220021A9
:10405C009954032312E0019B1B68DB680222134076
:10406C00E2D0019B1B68FF225A62019B292201218D
:10407C009954019B2822002199540023180005B063
:10408C0000BDC046FFFEFFFFFFEFFFFFFFFDFFFF80
:10409C00FFDFFFFF00B587B0039002910192009300
:1040AC00019A80235B009A4244D1029B80225200E9
:1040BC005A62039B1B681B6C0593039B1B685B6C10
:1040CC005B045B0C0493059B1B0CDBB23F2213407F
:1040DC00DAB2029B1A70059B1B0ADBB27F221340DB
:1040EC00DAB2029B5A70059BDBB27F221340DAB224
:1040FC00029B9A70059B9B0DDBB201221340DAB236
:10410C00029BDA70029B049A5A60059B1B0EDBB271
:10411C003F221340D9B2029B20229954059A802346
:10412C00DB051A40029BDA61059B3B4A1A40029B55
:10413C005A6143E0029B802292005A62039B1B68E7
:10414C009B6C0593039B1B68DB6C5B045B0C0493FF
:10415C00059B1B0CDBB23F221340DAB2029B1A7098
:10416C00059B1B0ADBB27F221340DAB2029B5A700A
:10417C00059BDBB27F221340DAB2029B9A70059B3F
:10418C009B0DDBB201221340DAB2029BDA70029B68
:10419C00049A5A60059B1B0EDBB23F221340D9B226
:1041AC00029B20229954059A8023DB051A40029B1E
:1041BC00DA61059B184A1A40029B5A61009B002B3E
:1041CC0025D1029B1B78180000F039F903001A0066
:1041DC00029B1A70029B5B78180000F030F9030008
:1041EC001A00029B5A70029B9B78180000F027F96A
:1041FC0003001A00029B9A70029B20229B5C180001
:10420C0000F01DF903001900029B20229954002391
:10421C00180007B000BDC0468080808000B583B018
:10422C000190019B1B689A6980235B01134011D09C
:10423C00019B1B681B6D012213400BD0019B1B685B
:10424C00DA6D019B1B6801210A43DA65019B18009A
:10425C00FEF746FF019B1B689A6980239B01134064
:10426C0011D0019B1B681B6D022213400BD0019BCC
:10427C001B68DA6D019B1B6802210A43DA65019BFE
:10428C00180001F09DFF019B292201219954C04681
:10429C0003B000BD00B585B00190019B1B68DA68C6
:1042AC00019B1B68A0218A43DA60FCF7B7FB030073
:1042BC0003930AE0FCF7B2FB0200039BD21AFA2329
:1042CC009B009A4201D9032306E0019B1B68DB6823
:1042DC0020221340EED00023180005B000BD00B51D
:1042EC0085B001900F236B4400221A70019B1B6850
:1042FC00DB68402213402ED1019B1B68DA68019BBE
:10430C001B6880210A43DA60FCF788FB03000293E8
:10431C0016E0FCF783FB0200029BD21A0F236B44BE
:10432C000F21694409781970FA239B009A4207D926
:10433C000F236B4403221A70019B292203219954E9
:10434C00019B1B68DB684022134004D10F236B4494
:10435C001B78032BDDD10F236B441B78180005B0A1
:10436C0000BD000000B585B001900F236B44002206
:10437C001A701D4BDA681C4B80218A43DA601A4B89
:10438C009B69202213400ED1019B1800FFF782FF7E
:10439C00031E22D0019B2922032199540F236B4425
:1043AC0003221A7019E0104B9A690F4B20218A4393
:1043BC009A61019B1800FFF76DFF031E07D0019B4C
:1043CC002922032199540F236B4403221A70064BA4
:1043DC009A69054B20210A439A610F236B441B7881
:1043EC00180005B000BDC0460028004084B0020093
:1043FC006B4607331A70002303930B236B446A46F6
:10440C00073212781A7009E0039B013303930B23D4
:10441C006B440B226A4412780A3A1A700B236B44D1
:10442C001B78092BF0D8039BDBB21B01DAB20B23F0
:10443C006B441B781343DBB2180004B0704784B094
:10444C0002006B4607331A706B4607331B781B0947
:10445C00DBB21A0013009B009B185B000393039BB9
:10446C00DAB26B4607331B780F210B40DBB2D31843
:10447C00DBB2180004B07047044B1A68034B802160
:10448C0049000A431A60C0467047C046007000409D
:10449C0000B585B00190194B1B68194A13401900DF
:1044AC00164B019A0A431A60019A80239B009A4288
:1044BC001FD1144B1A6813005B009B185B00124948
:1044CC001800FBF7F5FD03000133039308E0039B91
:1044DC00002B03D0039B013B039301E0032309E072
:1044EC00064B5A698023DB001A408023DB009A427A
:1044FC00EDD00023180005B000BDC0460070004090
:10450C00FFF9FFFF0000002040420F0000B587B00C
:10451C00019013236B4400221A7012236B44002267
:10452C001A70019B1A6880239B02134000D1AEE0E5
:10453C0011236B4400221A70474BDA6B80235B0506
:10454C00134011D1444BDA6B434B802149050A438C
:10455C00DA63414BDA6B80235B0513400293029BB9
:10456C0011236B4401221A703C4B1A683B4B80217F
:10457C0049000A431A60FCF751FA030003930BE05D
:10458C00FCF74CFA0200039BD31A022B04D9132319
:10459C006B4403221A7005E0304B1A6880235B00D1
:1045AC001340EDD013236B441B78002B5ED12A4BA8
:1045BC00DA6DC0239B0013400593059B002B19D08B
:1045CC00019B1B6C059A9A4214D0234BDB6D244A39
:1045DC0013400593204BDA6D1F4B802149020A438F
:1045EC00DA651D4BDA6D1C4B1E490A40DA651A4B15
:1045FC00059ADA65059B0122134016D0FCF70EFADA
:10460C00030003930CE0FCF709FA0200039BD31A96
:10461C00154A934204D913236B4403221A7004E005
:10462C000D4BDB6D02221340EDD013236B441B7832
:10463C00002B0AD1084BDB6D094A13401900019B72
:10464C001A6C054B0A43DA6516E012236B441322ED
:10465C006A4412781A700FE000100240007000409B
:10466C00FFFCFFFFFFFFFEFF8813000012236B44CB
:10467C0013226A4412781A7011236B441B78012B95
:10468C0005D1B64BDA6BB54BB5490A40DA63019BE1
:10469C001B680122134009D0B04B5B6D032293437E
:1046AC001900019B5A68AD4B0A435A65019B1B6864
:1046BC000222134009D0A94B5B6D0C2293431900C5
:1046CC00019B9A68A54B0A435A65019B1B680422FF
:1046DC00134009D0A14B5B6D302293431900019B11
:1046EC00DA689E4B0A435A65019B1B6810221340E3
:1046FC0009D09A4B5B6D9B4A13401900019B1A69B8
:10470C00964B0A435A65019B1A6880235B01134040
:10471C0009D0924B5B6D944A13401900019B5A6966
:10472C008E4B0A435A65019B1A6880239B001340E9
:10473C0009D08A4B5B6D8D4A13401900019B9A6A14
:10474C00864B0A435A65019B1A688023DB00134091
:10475C0009D0824B5B6D864A13401900019BDA6AC3
:10476C007E4B0A435A65019B1B682022134009D0DB
:10477C007A4B5B6D7F4A13401900019B9A69774B0A
:10478C000A435A65019B1B684022134009D0734BA6
:10479C005B6D794A13401900019BDA696F4B0A4330
:1047AC005A65019B1A688023DB01134015D06B4BB3
:1047BC005B6D9B009908019B1A6B684B0A435A6509
:1047CC00019B1A6B8023DB059A4206D1634BDA6896
:1047DC00624B802149020A43DA60019B1A688023EC
:1047EC001B03134009D05D4B5B6D402293431900B2
:1047FC00019B5A6B594B0A435A65019B1A688023DB
:10480C009B03134016D0554B5B6D5C4A134019004B
:10481C00019B9A6B514B0A435A65019B9A6B8023FF
:10482C00DB039A4206D14D4BDA684C4B802149048C
:10483C000A43DA60019B1A688023DB03134016D00D
:10484C00464B5B6D4E4A13401900019BDA6B434B90
:10485C000A435A65019BDA6B80235B049A4206D1AA
:10486C003E4BDA683D4B802149040A43DA60019BD8
:10487C001A6880231B01134014D0384B9B6D032204
:10488C0093431900019B1A6A344B0A439A65019BA6
:10489C001B6A012B06D1314BDA68304B802149025F
:1048AC000A43DA60019B1A6880239B01134014D0E1
:1048BC002A4B9B6D0C2293431900019B5A6A274B80
:1048CC000A439A65019B5B6A042B06D1234BDA6879
:1048DC00224B802149020A43DA60019B1A6880232B
:1048EC005B04134016D01D4B9B6D224A13401900DC
:1048FC00019B5A6C194B0A439A65019B5A6C802395
:10490C009B019A4206D1154BDA68144B802149045D
:10491C000A43DA60019B1A6880239B04134016D06B
:10492C000E4B9B6D104A13401900019B9A6C0B4B5C
:10493C000A439A65019B9A6C80235B009A4206D1CC
:10494C00064BDA68054B802149040A43DA601223CE
:10495C006B441B78180007B000BDC0460010024025
:10496C00FFFFFFEFFFF3FFFFFFFCFFFFFFFFF3FF76
:10497C00FFFFCFFFFFCFFFFFFF3FFFFFFFFFBFFF9B
:10498C00FFFFFFFE00B583B00190019B1800FBF701
:10499C001FFF019BD869019B1B6A9BB20122190066
:1049AC00FCF7C6FF019B5869019B9B699BB20122D6
:1049BC001900FCF7BDFF019B5868019B9B689BB2DB
:1049CC0000221900FCF7B4FF0220FCF72DF8019B24
:1049DC005868019B9B689BB201221900FCF7A8FF49
:1049EC001420FCF721F8019B3021180000F03EF850
:1049FC000220FCF719F8019B3021180000F036F862
:104A0C00019B3021180000F031F8019B392118006E
:104A1C0000F02CF8019B1721180000F027F8019BDF
:104A2C005621180000F022F8019B6D21180000F0AF
:104A3C001DF8C820FBF7F8FF019B7021180000F04F
:104A4C0015F8019B0E21180000F010F8019B0621AF
:104A5C00180000F00BF8019B0121180000F006F87B
:104A6C000120FBF7E1FFC04603B000BD00B583B0E9
:104A7C0001900A006B4603331A70019BD868019BA6
:104A8C001B699BB200221900FCF752FF019B58696D
:104A9C00019B9B699BB200221900FCF749FF019B0B
:104AAC001868FA239B006A46D11C012200F0C4F955
:104ABC00019B5869019B9B699BB201221900FCF771
:104ACC0037FF1E2000F0E2F8C04603B000BD00B571
:104ADC0083B001900A006B4603331A70019BD868AF
:104AEC00019B1B699BB201221900FCF721FF019B62
:104AFC005869019B9B699BB200221900FCF718FFB7
:104B0C00019B1868FA239B006A46D11C012200F015
:104B1C0093F9019B5869019B9B699BB20122190077
:104B2C00FCF706FF1E2000F0B1F8C04603B000BD34
:104B3C0000B585B001900091002303930DE0039B19
:104B4C00009AD3181B785BB2DAB2019B11001800E3
:104B5C00FFF7BDFF039B01330393009B1800FBF78A
:104B6C0043FB03001A00039B9342E8DBC046C0469C
:104B7C0005B000BD00B585B00190080011006B4672
:104B8C000333021C1A706B4602330A1C1A706B46F4
:104B9C0003331B78002B04D00F236B4440221A7074
:104BAC0003E00F236B4400221A706B4602331B7810
:104BBC000F2B04D90E236B4400221A7005E00E2330
:104BCC006B446A46023212781A700F226A440E2322
:104BDC006B4412781B78D318DBB25BB28022524242
:104BEC0013435BB2DAB2019B11001800FFF73EFFD2
:104BFC00C04605B000BD00B583B001900A006B46FD
:104C0C0003331A70019BD869019B1B6A99B26B46DE
:104C1C0003331B781A00FCF78BFEC04603B000BDB3
:104C2C0000B583B00190019B01211800FFF71EFF16
:104C3C000220FBF7F9FEC04603B000BD00B583B0FF
:104C4C000F4BDA6B0E4B10210A43DA630C4BDB6B08
:104C5C00102213400193019B0A4B0B4A1A60094B1B
:104C6C0040225A60074B00229A60064BFA229200AF
:104C7C00DA60044B1800FDF717FDC04603B000BD09
:104C8C0000100240A41400200010004000B583B0B6
:104C9C0002006B4606331A800B4B1800FDF760FDC3
:104CAC00C046094B1B685A6A6B4606331B889A42EE
:104CBC00F7D3054B1B6800225A62034B1800FDF713
:104CCC00A7FDC04603B000BDA414002000B585B0FC
:104CDC000190019B002B01D10123A8E0019B5B6A91
:104CEC00002B09D1019B5A6882235B009A4209D0A0
:104CFC00019B0022DA6105E0019B00221A61019BF5
:104D0C0000225A61019B00229A62019B5D229B5CEE
:104D1C00DBB2002B07D1019B5C2200219954019B33
:104D2C001800FBF71BFD019B5D2202219954019B8E
:104D3C001B681A68019B1B6840218A431A60019BFF
:104D4C00DA68E023DB009A4202D90023039302E0E5
:104D5C0080235B010393019BDA68F0231B019A42C9
:104D6C0008D0019BDA68E023DB009A4202D0019B59
:104D7C0000229A62019B5A6882235B001A40019BB5
:104D8C00996884231B020B401A43019B1B69022167
:104D9C000B401A43019B5B6901210B401A43019B99
:104DAC00996980239B000B401A43019BDB693821D6
:104DBC000B401A43019B1B6A80210B401A431100C4
:104DCC00019B9A6A80239B011A40019B1B680A4332
:104DDC001A60019B9B691B0C04221A40019B5B6AA5
:104DEC0010210B401A43019B5B6B08210B401A43AB
:104DFC00019BD968F0231B010B401A431100039A45
:104E0C0080235B011A40019B1B680A435A60019B7B
:104E1C001B68DA69019B1B6806490A40DA61019B31
:104E2C0000221A66019B5D2201219954002318006F
:104E3C0005B000BDFFF7FFFF00B589B003900291EC
:104E4C0000936B4606331A801F236B4400221A70A2
:104E5C00039B5C229B5C012B01D1022344E1039B4D
:104E6C005C2201219954FBF7D9FD0300069316230C
:104E7C006B446A46063212881A80039B5D229B5C47
:104E8C00DBB2012B04D01F236B4402221A7020E1E9
:104E9C00029B002B04D06B4606331B88002B04D1DD
:104EAC001F236B4401221A7013E1039B5D22032123
:104EBC009954039B00221A66039B029A9A63039BE4
:104ECC006A46063212889A87039B6A460632128813
:104EDC00DA87039B00221A64039B44220021995217
:104EEC00039B462200219952039B00221A65039BC7
:104EFC000022DA64039B9A6880231B029A4210D129
:104F0C00039B1B681A68039B1B6840218A431A6029
:104F1C00039B1B681A68039B1B688021C9010A4309
:104F2C001A60039B1B681B6840221340402B07D060
:104F3C00039B1B681A68039B1B6840210A431A6079
:104F4C00039BDA68E023DB009A424ED9039B5B6833
:104F5C00002B04D016236B441B88012B3FD1039BE1
:104F6C009B6B1A88039B1B68DA60039B9B6B9A1CD8
:104F7C00039B9A63039BDB8F9BB2013B9AB2039B0F
:104F8C00DA872CE0039B1B689B6802221340022BE0
:104F9C0012D1039B9B6B1A88039B1B68DA60039BE3
:104FAC009B6B9A1C039B9A63039BDB8F9BB2013B0D
:104FBC009AB2039BDA8712E0FBF730FD0200069BE6
:104FCC00D31A009A9A4202D8009B013302D1009B5B
:104FDC00002B04D11F236B4403221A7079E0039B2E
:104FEC00DB8F9BB2002BCDD14FE0039B5B68002B7A
:104FFC0004D016236B441B88012B41D1039B9A6B65
:10500C00039B1B680C3312781A70039B9B6B5A1C06
:10501C00039B9A63039BDB8F9BB2013B9AB2039B6E
:10502C00DA872DE0039B1B689B6802221340022B3E
:10503C0013D1039B9A6B039B1B680C3312781A7069
:10504C00039B9B6B5A1C039B9A63039BDB8F9BB24A
:10505C00013B9AB2039BDA8712E0FBF7DFFC0200FC
:10506C00069BD31A009A9A4202D8009B013302D1B4
:10507C00009B002B04D11F236B4403221A7028E0E1
:10508C00039BDB8F9BB2002BCCD1069A0099039B20
:10509C00180000F05BF9031E02D0039B20221A6655
:1050AC00039B9B68002B0AD100230493039B1B6872
:1050BC00DB680493039B1B689B680493049B039B12
:1050CC001B6E002B04D01F236B4401221A7000E0CE
:1050DC00C046039B5D2201219954039B5C22002155
:1050EC0099541F236B441B78180009B000BD0000B5
:1050FC0000B589B00390029100936B4607331A7088
:10510C00FBF78CFC02000A9B9B1A009AD31807939E
:10511C00FBF784FC030006933A4B1B685B011B0DE9
:10512C00079A5343059358E0009B013355D0FBF786
:10513C0075FC0200069BD31A079A9A4202D9079B68
:10514C00002B42D1039B1B685A68039B1B68E02110
:10515C008A435A60039B5A6882235B009A4213D19C
:10516C00039B9A6880231B029A4205D0039B9A6882
:10517C008023DB009A4207D1039B1B681A68039BB0
:10518C001B6840218A431A60039B9A6A80239B0107
:10519C009A4210D1039B1B681A68039B1B681A491F
:1051AC000A401A60039B1B681A68039B1B688021CA
:1051BC0089010A431A60039B5D2201219954039BC8
:1051CC005C2200219954032318E0059B002B01D18C
:1051DC0000230793059B013B0593039B1B689B686E
:1051EC00029A1340029AD31A5A425341DBB21A0064
:1051FC006B4607331B789A4296D10023180009B0EE
:10520C0000BDC04600000020FFDFFFFF00B58BB0E3
:10521C00039002910192009317236B4400221A70A1
:10522C00FBF7FCFB02000C9B9B1A009AD31809930A
:10523C00FBF7F4FB03000893039B1B680C330793E9
:10524C00404B1A6813009B009B18DA00D31A1B0DF5
:10525C00099A5343069369E0029AC023DB009A42F1
:10526C000BD1019B002B08D1079B1B78DAB21723BB
:10527C006B441A7017236B441B78009B013355D079
:10528C00FBF7CCFB0200089BD31A099A9A4202D96D
:10529C00099B002B42D1039B1B685A68039B1B681C
:1052AC00E0218A435A60039B5A6882235B009A422E
:1052BC0013D1039B9A6880231B029A4205D0039B4F
:1052CC009A688023DB009A4207D1039B1B681A68FB
:1052DC00039B1B6840218A431A60039B9A6A8023B4
:1052EC009B019A4210D1039B1B681A68039B1B6895
:1052FC0015490A401A60039B1B681A68039B1B68BC
:10530C00802189010A431A60039B5D220121995473
:10531C00039B5C2200219954032310E0069B002B75
:10532C0001D100230993069B013B0693039B1B6849
:10533C009B68029A1340019A9A428DD1002318005F
:10534C000BB000BD00000020FFDFFFFF00B587B0F1
:10535C00059004910392049AC02359010598039B6C
:10536C00009313000022FFF751FF031E07D0059B8B
:10537C001B6E20221A43059B1A66032327E0049A0E
:10538C000598039B0093130000228021FFF7B0FEC9
:10539C00031E07D0059B1B6E20221A43059B1A6621
:1053AC00032314E0049AC023D9000598039B0093AF
:1053BC0013000022FFF72AFF031E07D0059B1B6E6C
:1053CC0020221A43059B1A66032300E000231800D1
:1053DC0007B000BD00B587B00190009104AB2D4A19
:1053EC0012881A8002220021995403AB294A128890
:1053FC001A80022200219954009B5B78180004ABA0
:10540C000A22190000F0E1FE009B5B78092B0FD8F3
:10541C0017236B4404AA12781A7004AB30221A704A
:10542C0004AB17226A4412785A7004AB00229A70AB
:10543C00009B1B78180003AB0A22190000F0C5FE74
:10544C00009B1B78092B0FD816236B4403AA1278E8
:10545C001A7003AB30221A7003AB16226A4412780E
:10546C005A7003AB00229A7003AA019B110018001A
:10547C0000F000FF084A019B1100180000F0FAFE32
:10548C0004AA019B1100180000F0F4FEC04607B0FE
:10549C0000BDC046306300082C63000800B587B01F
:1054AC000190009104AB444A12881A800222002118
:1054BC00995403AB404A12881A8002220021995455
:1054CC0002AB3D4A12881A80022200219954009B9B
:1054DC005B68180004AB0A22190000F076FE009BF2
:1054EC005B68092B0FD817236B4404AA12781A7027
:1054FC0004AB30221A7004AB17226A4412785A702B
:10550C0004AB00229A70009B9B68180003AB0A2224
:10551C00190000F05AFE009B9B68092B0FD816232C
:10552C006B4403AA12781A7003AB30221A7003ABC7
:10553C0016226A4412785A7003AB00229A70009BB0
:10554C00DB68180002AB0A22190000F03EFE009B3B
:10555C00DB68092B0FD815236B4402AA12781A703A
:10556C0002AB30221A7002AB15226A4412785A70C0
:10557C0002AB00229A7002AA019B1100180000F0E5
:10558C0079FE0E4A019B1100180000F073FE03AA6D
:10559C00019B1100180000F06DFE084A019B1100E0
:1055AC00180000F067FE04AA019B1100180000F01F
:1055BC0061FEC04607B000BD306300082C630008D4
:1055CC0010B59AB0019000910DAB4E4A13CA13C39B
:1055DC0013CA13C313CA13C313CA13C306AB4A4A61
:1055EC0013CA13C313CA13C312681A60009B1B6936
:1055FC00180005AB0A22190000F0E7FD009B1B699F
:10560C00092B0FD867236B4405AA12781A7005ABC7
:10561C0030221A7005AB67226A4412785A7005ABB7
:10562C0000229A70009B9B69180004AB0A22190097
:10563C0000F0CBFD009B9B69092B0FD866236B44B4
:10564C0004AA12781A7004AB30221A7004AB6622CA
:10565C006A4412785A7004AB00229A702B4B1B7858
:10566C00180003AB0A22190000F0AFFD274B1B7882
:10567C00092B0FD865236B4403AA12781A7003AB5D
:10568C0030221A7003AB65226A4412785A7003AB4D
:10569C0000229A70009B5B695A1E0DAB9200D25887
:1056AC00019B1100180000F0E5FD05AA019B1100FB
:1056BC00180000F0DFFD164A019B1100180000F0E5
:1056CC00D9FD03AA019B1100180000F0D3FD04AA18
:1056DC00019B1100180000F0CDFD0D4A019B11003B
:1056EC00180000F0C7FD009BDB695A1E06AB920048
:1056FC00D258019B1100180000F0BCFDC0461AB036
:10570C0010BDC04698630008E46300087D010020CA
:10571C003463000810B5274B274A1A60254B8222A8
:10572C0052005A60234B1822DA61224B00229A60F5
:10573C00204B01225A611F4B02221A611D4BE022A1
:10574C00D200DA601B4B00221A621A4B80229200A4
:10575C009A61184B00229A62164B00225A62154B22
:10576C001800FFF7B3FA154B154ADA61134B802278
:10577C0052011A62114B134A5A61104B80221202C9
:10578C009A610E4B0E4ADA600C4B802292001A6121
:10579C000A4B0B4A5A60094B802252009A60074B05
:1057AC00044A1A60FFF74AFA044B1800FFF7EAF8AC
:1057BC00C04610BDF01400200038004080140020BA
:1057CC00000800500004005000B583B00190019A0D
:1057DC00084B11001800FFF761FE019B05221A709F
:1057EC00019A054B1100180000F0CEF9C04603B029
:1057FC0000BDC046E8600020CC60002000B583B03E
:10580C000190019A084B11001800FFF7D9FE019B7B
:10581C0006221A70019A054B1100180000F0B4F919
:10582C00C04603B000BDC046F4600020CC60002030
:10583C0000B583B00190254B01211800FFF7DBF96F
:10584C00224B1800FFF7ECF9204B01220021180025
:10585C00FFF790F91E4A1D4B11001800FFF768F96D
:10586C001C4A1B4B1100180000F036FD019B502206
:10587C009B5C012B0AD1154B002201211800FFF76C
:10588C0079F9124B41211800FFF721F90F4B032234
:10589C0001211800FFF76EF90F4A0C4B110018008C
:1058AC00FFF746F90B4A0C4B1100180000F014FDE1
:1058BC0001AB04220021180000F0D4FC074B04219A
:1058CC001800FCF754F8C04603B000BD801400204B
:1058DC00F460002000640008E8600020000800501C
:1058EC0000B583B00190184B002201211800FFF77E
:1058FC0041F9154B00211800FFF7E9F8124B032270
:10590C0001211800FFF736F90F4B00211800FFF7A3
:10591C00DEF80E4A0C4B11001800FFF709F90C4B7E
:10592C001B781A00012313405A425341DBB21A0070
:10593C00074B1A70064B1A78034B11001800FFF72F
:10594C005AF9C04603B000BD80140020046400085E
:10595C000461002000B589B0019005AB00221A60EB
:10596C00043308220021180000F07CFC03AB002259
:10597C001A6000229A801C4B002201211800FFF7AC
:10598C00F9F8194B00211800FFF7A1F8164B022269
:10599C0001211800FFF7EEF8019B28331A0003AB26
:1059AC0011001800FFF716FD104A05AB1100180086
:1059BC0000F060FC03AA05AB1100180000F05AFCC3
:1059CC0005AA094B11001800FFF7B2F8019B04223D
:1059DC000021180000F046FC054B0321180000F0D4
:1059EC00DBFAC04609B000BD80140020106400082A
:1059FC002800002000B583B00190184B0022012133
:105A0C001800FFF7B7F8164A144B11001800FFF7EF
:105A1C008FF8124B00211800FFF759F8114A0F4B61
:105A2C0011001800FFF784F80C4B00211800FFF749
:105A3C004EF80D4A094B11001800FFF779F8019B3D
:105A4C0004220021180000F00DFC084B0321180063
:105A5C0000F0A2FAC04603B000BDC046801400207E
:105A6C001864000820640008246400082800002042
:105A7C0082B00190C04602B07047000000B597B0EC
:105A8C0057236B4400221A706B4657226A441278D3
:105A9C001A701AE06A46124B1100180000F0BEF89A
:105AAC0057236B446A4612781A7057236B441B7841
:105ABC00062B0AD857236B441B780A4ADB00D318F1
:105ACC0004331B686A4610009847054B180000F019
